:0300000002157E68
:0C157E00787FE4F6D8FD7581770215C572
:0C17DD002566006572726F7221212100E8
:10166B00015020044C000000010F2D200000000051
:10167B00000000000000000000000F3C20000000F4
:0B168B00000000000000000000000054
:0717CF007FFA1217D67FFA22
:0617D600EFC313FFDFFE6C
:0117DC0022EA
:0A1747001217517F381217607F0A55
:0F175100AE071EEE60081217CF1217CF80F422DA
:10176000AD077F05121751C2A7C2A6D2A500D2A508
:091770008D80C2A57F050217510E
:10172C00AD077F05121751D2A7C2A5C2A600D2A53C
:0B173C008D80C2A5C2A77F05021751D7
:04170B00AE07AB0575
:10170F00EEC3941074809480EE400524B0FC8003E7
:0D171F002480FCAF04121760AF0302172CEA
:06163E008B588A59895AFD
:10164400EFC454F0F55BE4F55CAB58AA59A95A858C
:101654005C8275830012056EFD600BAF5B055B1247
:06166400170B055C80E39A
:01166A00225D
:1016E8007F0F1217477F381217607F0A1217477F3C
:1016F8000612174C7F0C12174C7F011217607F0AD5
:0317080002175174
:1014DA0053A0E043900FE59044F0F4700EE5904479
:1014EA00F0F460F97F0A12175180EBE59044F0F4AA
:1014FA00FF43A01F5390F0E5A044E0F4FEE4FDEDA5
:10150A00FB3395E0FAD3EB9404EA64809480501498
:10151A00EEFB3395E0FAEB64014A6008EEA2E713AA
:10152A00FE0D80DBAE057D01EDFB3395E0FAD3EBD2
:10153A009404EA648094805014EFFB3395E0FAEB4C
:10154A0064014A6008EFA2E713FF0D80DBAF05EEE6
:10155A0025E025E02FFD53A0E043900FE59044F0ED
:10156A00F4600EE59044F0F470F97F0A1217518086
:03157A00EBAF05CF
:01157D00224B
:061431008B588A59895A0C
:10143700E4F55B755FFF7560177561DD8F658E6419
:101447008D638C6212079DAB58AA59A95A1217A728
:10145700E4FEC3EF6480F8EE648098501BAB58AA93
:1014670059A95AEEFD3395E08D82F58312056EB4C6
:101477002E03755B010E80DAAD5BED3395E0FCED75
:1014870064014C704DEF14FEEE3395E0C364809415
:1014970080403FAB58AA59A95AEEFD3395E08D829B
:1014A700F58312056EFFB42E0AEE3395E08D82F5B3
:1014B700838018EF64306017AB58EEFF3395E0FE7A
:1014C700E55A2FF9E5593EFA900001E40205AD1EF1
:0214D70080B6DD
:0114D90022F0
:100BB000E4F557AF29AE28AD27AC26FB7A00793C87
:100BC0001214317B007A00793C1217A7E4FEF9C3B6
:100BD000EF6480F8EE648098501C743C2EF8E6B404
:100BE0002E03755701AD57ED3395E0FCED64014CD4
:100BF0007001090E80D9C3E52C6480F8E9648098FF
:100C00005076AD57ED3395E0FCED64014C701FAEAE
:100C100007E52C2FC399C36480F8EE6480985009CF
:100C2000743C2EF876300E80E8743C2E8047743C7D
:100C30002FF8762EE9FD3395E0FCAB2CEB3395E0F5
:100C4000FAC3EB9DFDEA9CFCD3ED9401EC64809427
:100C500080401BEF04FEE52C2FC399C36480F8EE9F
:100C60006480985009743C2EF876300E80E8E52CAC
:100C70002FC399243CF8E4F6AD2BED3395E0FCED61
:100C800064014C702EFB7A00793C1217A7EF14FE1A
:100C9000EE3395E0C364809480400F743C2EF8E6F8
:100CA000FD743D2EF8A6051E80E6743D2FF8E4F68F
:100CB000753C2DAD4BED3395E0FCED64014C702E91
:100CC000FB7A00793C1217A7EF14FEEE3395E0C3D0
:100CD00064809480400F743C2EF8E6FD743D2EF83D
:100CE000A6051E80E6743D2FF8E4F6753CE8AF2AB1
:100CF000EF3395E04F7032AF25AE24AD23AC22FB2D
:100D00007A00792D1214317F011217607B007A006E
:100D1000792DE4FF12163E7B007A00793C7F0112A8
:100D2000163EAD507F0F02170B7F011217607BFF3D
:090D30007A1779E0E4FF12163E87
:010D39002297
:101039008F53AF51EF3395E0FEEF64014E60030229
:101049001171AF2BEF3395E0FEEF64014E7013AFD2
:1010590029AE28AD27AC2612031A8F298E288D2791
:101069008C26AF4BEF3395E0FEEF64014E7029FFFC
:10107900FEFDFCAB29AA28A927A8261202A1401522
:10108900AF29AE28AD27AC2612138B8F298E288D58
:10109900278C268003752A01E550B42B1BAF25AE9A
:1010A90024AD23AC22AB29AA28A927A82612000A15
:1010B9008F258E248D238C22E550B42D1BAF25AEB0
:1010C90024AD23AC22AB29AA28A927A826120006F9
:1010D9008F258E248D238C22E550B42A1BAF25AE93
:1010E90024AD23AC22AB29AA28A927A8261200FBE4
:1010F9008F258E248D238C22E550B42F32E4FFFEF8
:10110900FDFCAB29AA28A927A8261202A1601DAFB8
:1011190025AE24AD23AC22AB29AA28A927A82612DB
:1011290002048F258E248D238C228003752A01E5E4
:1011390050B4201EE4FFFEFDFCAB29AA28A927A86C
:10114900261202A1600C8529258528248527238557
:101159002622E4F529F528F527F526F54BF52B7513
:101169004F01F54EF54DF54CAF53EF3395E0FEEFDA
:1011790064044E700375502BEF64084E700375506C
:101189002DEF640C4E700375502AEF64104E7003F6
:0B11990075502FE4F52CF551020BB04F
:020EC200AB077C
:100EC400EB3395E0FEEF64014E700AF556F5557567
:100ED40054E0755340EBFF3395E0FEEF64024E702F
:100EE40009F556F555F554755341EBFF3395E0FE7E
:100EF400EF64034E700AF556F55575541075534159
:100F0400EBFF3395E0FEEF64054E700AF556F55598
:100F1400755480755340EBFF3395E0FEEF64064E45
:100F2400700AF556F5557554A0755340EBFF33958B
:100F3400E0FEEF64074E700AF556F5557554C0751A
:100F44005340EBFF3395E0FEEF64094E700AF5560B
:100F5400F55575548075533FEBFF3395E0FEEF6410
:100F64000A4E7009F556F555F554755340EBFF33A9
:100F740095E0FEEF640B4E700AF556F55575544036
:100F8400755340AF03EF3395E0FEEF640D4E7008E8
:100F9400F556F555F554F553E47F01FEFDFCAB4FD2
:100FA400AA4EA94DA84CC31206FA7026FFFE7D2056
:100FB4007C41AB29AA28A927A8261200FBAB56AA74
:100FC40055A954A85312000A8F298E288D278C26E0
:100FD400805DAB29AA28A927A826C000C001C002A9
:100FE400C003AF4FAE4EAD4DAC4CE412032BA8047E
:100FF400A905AA06AB07AF56AE55AD54AC531202C1
:1010040004D003D002D001D00012000A8F298E2808
:101014008D278C26AF4FAE4EAD4DAC4CE47B0AFA17
:10102400F9F81205CF8F4F8E4E8D4D8C4C052C75D3
:051034005101020BB0A8
:10160A00E47F01FEFDFCAB4FAA4EA94DA84CC312C4
:10161A0006FA701AAF4FAE4EAD4DAC4C7B0AFAF9D2
:10162A00F81205CF8F4F8E4E8D4D8C4C052C75516F
:04163A0001020BB0EE
:1011A400AF2BEF3395E0FEEF64014E7013AF29AE21
:1011B40028AD27AC2612031A8F298E288D278C265A
:1011C400AF4BEF3395E0FEEF64014E7029FFFEFD57
:1011D400FCAB29AA28A927A8261202A14015AF29E9
:1011E400AE28AD27AC2612138B8F298E288D278C21
:1011F400268003752A01E550B42B1BAF25AE24AD20
:1012040023AC22AB29AA28A927A82612000A8F25D5
:101214008E248D238C22E550B42D1BAF25AE24AD36
:1012240023AC22AB29AA28A927A8261200068F25B9
:101234008E248D238C22E550B42A1BAF25AE24AD19
:1012440023AC22AB29AA28A927A8261200FB8F25A4
:101254008E248D238C22E550B42F32E4FFFEFDFC56
:10126400AB29AA28A927A8261202A1601DAF25AE82
:1012740024AD23AC22AB29AA28A927A8261202044C
:101284008F258E248D238C228003752A01E550B48A
:10129400201EE4FFFEFDFCAB29AA28A927A82612DC
:1012A40002A1600C852925852824852723852622EB
:1012B400E4F529F528F527F526F54BF52B754F01AF
:1012C400F54EF54DF54C755020F52CF551020BB04B
:10169700E4F525F524F523F522F529F528F527F5B1
:1016A70026F54BF52B754F01F54EF54DF54C75505D
:0A16B70020F52AF52CF551020BB0C6
:100D3A00E4FFFEFDFCAB29AA28A927A8261202A1D6
:100D4A007014F54BF52B754F01F54EF54DF54CF535
:100D5A002CF551020EBE755FFF7560177561DD8552
:100D6A0029658528648527638526627B007A007950
:100D7A003C12079D7B007A00793C1217A7EF14F505
:100D8A0053AF53EF3395E0C3648094804012743CB0
:100D9A002FF8E6FF64306004EFB42E04155380E1A7
:100DAA00E47F01FEFDFCAB4FAA4EA94DA84CC3122D
:100DBA0006FA7056AF29AE28AD27AC26C004C00586
:100DCA00C006C007743C2553F8E6FF3395E0FEEFF2
:100DDA0024D0FDEE34FFFC120330A804A905AA06AC
:100DEA00AB07D007D006D005D0041200068F298E93
:100DFA00288D278C26E4FBFA792078411202048F89
:100E0A00298E288D278C26020EBEAF4FAE4EAD4DD1
:100E1A00AC4CE47B0AFAF9F812065A8F4F8E4E8DC3
:100E2A004D8C4CAB29AA28A927A826C000C001C00E
:100E3A0002C003E412032BD003D002D001D0001267
:100E4A0000FB8F298E288D278C26C004C005C0067A
:100E5A00C007743C2553F8E6FF3395E0FEEF24D033
:100E6A00FDEE34FFFC120330A804A905AA06AB075D
:100E7A00D007D006D005D0041200068F298E288DFF
:100E8A00278C26C004C005C006C007AF4FAE4EADC2
:100E9A004DAC4CE412032BA804A905AA06AB07D053
:100EAA0007D006D005D0041202048F298E288D2778
:070EBA008C26152C120BB071
:010EC100220E
:10177900AF2BEF3395E04F7005752B018003E4F52E
:071789002B755101020BB0AA
:10179000AF4BEF3395E04F7005754B018003E4F5D7
:0717A0004B755101020BB073
:1012D4008F52E55214B4140040030213869012EFA7
:1012E40075F003A4C58325F0C58373021339021373
:1012F4003902133902132B02133902133902133939
:1013040002132B02133902133902133902132B026D
:10131400133902134702135302132B02135F0213F0
:101324006202136E02137AAF2AEF3395E04F7052C4
:10133400AF52021039AF2AEF3395E04F7044AF52E9
:10134400020EC2AF2AEF3395E04F703602160AAF91
:101354002AEF3395E04F702A0211A4021697AF2AA0
:10136400EF3395E04F701B020D3AAF2AEF3395E04F
:101374004F700F021779AF2AEF3395E04F700312C5
:031384001790229D
:1017BC001216E87F0F121751120BB01214DA121214
:0317CC00D480F8CE
:1000030002039EE86480F8E933E83360110460F08A
:10001300ED33EC337009E8FCE9FDEAFEEBFF220463
:1000230060DED3EB9FEA9EE99DE8C2E78CF0C2F75E
:1000330095F0400CE8CCF8E9CDF9EACEFAEBCFFB2A
:1000430012036985D0F05804700320D5B3E8047017
:10005300075002B2D50203A892D5EC0460F7E4CCB2
:10006300C0E0C398F8603B94186008400DD0E0FBF3
:10007300020380E4FBFAC9FC8028E830E406E4C903
:10008300FBE4CAFCE830E305E4C9CACBFCE8540747
:100093006010F8C3E913F9EA13FAEB13FBEC13FC52
:1000A300D8F130F52FC3E49CFCEF9BFFEE9AFEEDF5
:1000B30099FDD0E0FBEF4E4D4C701222DB0302039F
:1000C300A5EC2CFCEF33FFEE33FEED33FDED30E713
:1000D300EB020380EF2BFFEE3AFEED39FDD0E0FBA0
:1000E30050130BBB00030203A8ED13FDEE13FEEF49
:0800F30013FFEC13FC02038073
:1000FB00EC4D6011E8497017ED33EC3304600DE4FF
:10010B00FCFFFEFD22E933E8330470F802039E1274
:10011B00036958046009E4CC248150062850090275
:10012B0003A82840030203A5C0E0EB4A7044B98042
:10013B0006D0E0FB020394EF4E701CBD8008EBFF72
:10014B00EAFEE9FD80EBE98DF0A4FEE5F00201E4A7
:10015B00E9CDF9EAFEEBFFEF89F0A4FCE5F0CE89DF
:10016B00F0A42EFFE435F0CD89F0A42DFEE435F09C
:10017B008067EF4E7005BD80D780C3EF8BF0A4ACCA
:10018B00F0EE8BF0A42CFCE435F0F8EF8AF0A42C05
:10019B00E5F038FCE433CB8DF0A42CFCE5F03BF818
:1001AB00EE8AF0A42CFCE5F038F8E433CF89F0A408
:1001BB002CFCE5F038CF3400CE89F0A42FFFE5F00E
:1001CB003EFEE433C98DF0A42EFEE5F039CD8AF066
:1001DB00A42FFFE5F03EFEE43DFD33D0E0FB5007DE
:1001EB000BBB000F0203A8EC2CFCEF33FFEE33FE2E
:0601FB00ED33FD0203805C
:100201000203A8EC5D046005E85904700302039E33
:10021100120369580460F6EC4860F2EC7004FDFECC
:10022100FF22C860DB2481C85009C39860025006D0
:100231000203A59850CAF582E9294B4A7005AB82A1
:1002410002039475F0007C1A7880C3EF9BEE9AED5F
:1002510099400DC3EF9BFFEE9AFEED99FDE842F048
:10026100DC23ACF0D0E0FFD0E0FED0E0FDAB82209B
:10027100E7101BEB60BAEC2CFCEF33FFEE33FEED25
:1002810033FD020380E803F830E705C0F075F000A4
:10029100EF2FFFEE33FEED33FD40B830E7C280AA09
:1002A10074F8CC6480CCC86480C8F58204604FC304
:1002B100EB9FF5F0EA9E42F0E99D42F0E89C45F0A3
:1002C100603C501DE5825FFFE582D313CB5BCBF42D
:1002D1002B5582FB50280ABA002409B90020088056
:1002E1001DE5825BFBE582D313CF5FCFF4C3132FF0
:1002F1005582FF50090EBE00050DBD00010CC3EB78
:100301009FF5F0EA9E42F0E99D42F0E89C45F060DD
:0903110007CC4820E701B3EC22FF
:10031A00ED33EC33600A047003BD8004ECB2E7FCF1
:01032A0022B0
:10032B0075F020800E75F010800575F0087D007E4D
:10033B00007F003392D530D5031206ECEC3340101E
:10034B00EF33FFEE33FEED33FDEC33FCD5F0ED2256
:0E035B00E5F0247EA2D513CC92E7CDCEFF2292
:10074100E573245FF8E6057322785C300702785F71
:10075100E475F00112070B0205552000EB7F2ED244
:10076100008018EF540F2490D43440D4FF30040B90
:10077100EF24BFB41A0050032461FFE57460021531
:10078100740577E5777002057630070D785CE475BE
:10079100F00112070BEF02059B0216C17403D20789
:1007A1008003E4C207F5738B5C8A5D895EE4F574AE
:1007B100F576F577E57460077F2012077C80F57583
:1007C10075FFC201C200C202C203C205C206C2084D
:1007D10012074AFF700D3007057F0012078DAF77B2
:1007E100AE7622B4255FC2D5C20412074AFF24D0D7
:1007F100B40A00501A75F00A787430D50508B6FFAE
:100801000106C6A426F620D5047002D20380D9249D
:10081100CFB41A00EF5004C2E5D204020A7AD20121
:1008210080C6D20080C0D20280BCD2D580BAD205A7
:1008310080B47F2012077C2002077401B574004048
:10084100F1120741FF12077C0207B5D208D20680D8
:1008510095120741FB120741FA120741F94A4B7001
:100861000679717A0B7BFF20022EE574602A7E00E7
:100871008E8275830012056E60060EEE657570F04E
:10088100C2D5EBC0E0EAC0E0E9C0E0EE120ADAD07E
:10089100E0F9D0E0FAD0E0FB120555FF60AAEBC009
:1008A100E0EAC0E0E9C0E012077CD0E02401F9D021
:1008B100E03400FAD0E0FBE5750460DCD575D98041
:1008C10087D20280A2120ABD60F7E5757001041299
:1008D10003B3A975600DE575600914F575120B6414
:1008E100EF60F3EA30E702F404C3995077EAF425A4
:1008F100750430E701E404F575800D120ABD60C18D
:10090100EA057525751203B3EA7872F630E701E45A
:10091100257504D5750420050114120ADAE4C0E036
:10092100120B647872E6601320E70714F61207646D
:10093100802204F6D0E014C0E07F00120764E57560
:10094100600712075B1575800B30050312075BD03A
:10095100E00207B5D0E00480C5120ABD60A0E575CC
:10096100041203B37872EAF6E5752005026001040A
:050971002404120ADA63
:1009760074FF04C0E0120B64120764E575200502DB
:10098600600312075BD0E0B575E87F4512076E7805
:1009960072E67F2B30E7047F2DF404C0E012077C5B
:1009A600D0E075F00A84C0F0120765D0E012076542
:1009B6000207B5791080027908C206C2088008D2FB
:1009C600D5790A8004790AC2D5E575047002F575F1
:1009D600E4FAFDFEFF120741FC7B08200113120713
:1009E60041FD7B1030000A120741FE120741FF7BD2
:1009F60020EC3382D592D55013C3E43000069FFF16
:100A0600E49EFEE42001039DFDE49CFCE4CBF8C2D9
:100A160001EC700CCFCECDCCE824F8F870F380173B
:100A2600C3EF33FFEE33FEED33FDEC33FCEB33FB6C
:100A3600994002FB0FD8E9EB300105F8D0E0C44835
:100A4600B201C0E00AEC4D4E4F78207B0070C2EA3E
:100A5600B5750040BCC0E0120ADCD0F0D0E0200141
:100A660004C4C0E0C4B201C0F0120765D0F0D5F0EE
:100A7600EB0207B512071B08525309B95808234C55
:100A8600081F4209BD4F09C54409C549083843092D
:100A9600CB5508FC46095A4508C6470B915008270E
:100AA6002D082B2E084E2B082F23084C200B7A2AB4
:100AB60007E74800000846E575B4FF03757506129A
:100AC6000741FC120741FD120741FE120741FF785C
:100AD6006B0203E2790AA2D5200314300509B91086
:100AE600020404B9080104A2D5200602500104201C
:100AF60002689202B574005034C0E07F20300319BA
:100B06007F30A20272067205500F120B33C202C268
:100B160006C205C2087F30800F300503E9C0E01227
:100B2600077C300503D0E0F9D0E0B574CC3005176A
:100B36007F30B9100C12077C7F583004077F78800D
:100B460003B9080312077C3002057F2D02077C7F5C
:100B5600202008F87F2B2006F322920280CF7F0008
:100B6600B407005005246BF8E6FF22286E756C6CFE
:100B76002900D2011207413001F8C201787430D53C
:100B86000108F60207E72D5043495812074124038E
:100B9600B405004001E4900B8C9312076D743A1271
:0A0BA600076DD2037574040209B94B
:1013870002039E22EDA2E7D2E7F9EC3340F260F3C5
:10139700B4FF08ED547F70E80203A8F82481C2E087
:1013A700C0E0F40428FAC313FCED92E7FD8C548DDA
:1013B700558E568F57EEA2E7E9BA7F02C313340062
:1013C7009400FA75F091A4E5F013F494FE8AF0A462
:1013D70033E5F033248CD313FDE492E7FE7F007CE2
:1013E7003F758302ECC0E0F8EDC0E0F9EEC0E0FA2B
:1013F700EFC0E0FBAC54AD55AE56AF57120204D068
:10140700E0FBD0E0FAD0E0F9D0E0F812000AED6492
:1014170080FD30E7011CD583CBED33CC33F8D0E02A
:0A142700A2E71328C313CC13FD2223
:10036900E9D2E7C933E833F892D5EDD2E7CD33ECDA
:0703790033FC5002B2D52253
:10038000EC30E7100FBF000C0EBE00080DBD0004DE
:100390000BEB6014A2D5EB13FCED92E7FD2274FF8A
:1003A000FCFDFEFF22E480F8A2D574FF13FC7D80E3
:0303B000E480EFF7
:1003B300F920E72824F950037907E4F42402FB1811
:1003C300DBFDE624FB5014E9600DE4F618E604F6C1
:0F03D300B40A08E4F6D9F57401F60A22C2D5225D
:1003E200ED33EC3392D5FA602AB4FF33EDC2E77BEA
:1003F200FF60067A047907E4227A04791020D50492
:100402007A04790B224E614E002B494E46002D494B
:100412004E4600E47A08F608DAFC7B00740722E80C
:10042200C0E0ECC0E0EDC0E0EEC0E0EFC0E0EA7595
:10043200F010A4CAABF075F04DA42BFBE435F0FC30
:10044200EA2410FAEB34C5FBEC34D9FCEDC2E7FF29
:1004520075F056A4F42411C5F0F434C58FF0A42A23
:10046200E5F03BE43CF620E714120515D0E0FFD09E
:10047200E0FED0E0FDD0E0FC1202048014F404128D
:100482000515D0E0FFD0E0FED0E0FDD0E0FC120088
:10049200FBD0E0F8E6FAEDD2E7CD33EC332482FB71
:1004A200E4C3CF33CFCE33CECD33CD33DBF37B07B3
:1004B20075F00A846004F6081B0AE5F0F6088FF06E
:1004C200740AA4FFACF08EF0740AA42CFEACF050B7
:1004D200010C8DF0740AA42CFDE435F0F608DBDE85
:0304E2007407227A
:1004E5003F8000004120000042C80000447A00001F
:1004F500461C400047C35000497424004B189680A1
:100505004CBEBC205A0E1BCA6753C21C749DC5AE97
:10051500FB60065407601C2323120543EB54386027
:100525000912052F12053E1200FBECF8EDF9EEFA63
:10053500EFCB22EB12053E80F1543803241C9004C6
:10054500E5FE93FC0EEE93FD0EEE930ECE93FF2289
:10158A000217BCE493A3F8E493A34003F68001F2A4
:10159A0008DFF48029E493A3F85407240CC8C33362
:1015AA00C4540F4420C8834004F456800146F6DF31
:1015BA00E4800B010204081020408090166BE47E40
:1015CA00019360BCA3FF543F30E509541FFEE49326
:1015DA00A360010ECF54C025E060A840B8E493A3ED
:1015EA00FAE493A3F8E493A3C8C582C8CAC583CA18
:1015FA00F0A3C8C582C8CAC583CADFE9DEE780BED0
:011696000053
:10055500BB010689828A83E0225002E722BBFE02A4
:09056500E32289828A83E49322D7
:10056E00BB010CE58229F582E5833AF583E0225042
:10057E0006E92582F8E622BBFE06E92582F8E2228C
:0D058E00E58229F582E5833AF583E49322A6
:10059B00BB010689828A83F0225002F722BBFE013F
:0205AB00F32239
:1005AD00F8BB010DE58229F582E5833AF583E8F084
:1005BD00225006E92582C8F622BBFE05E92582C830
:0205CD00F22218
:1005CF00E88FF0A4CC8BF0A42CFCE98EF0A42CFCCB
:1005DF008AF0EDA42CFCEA8EF0A4CDA8F08BF0A449
:1005EF002DCC3825F0FDE98FF0A42CCD35F0FCEBA8
:1005FF008EF0A4FEA9F0EB8FF0A4CFC5F02ECD396D
:0F060F00FEE43CFCEAA42DCE35F0FDE43CFC22D9
:10061E0075F008758200EF2FFFEE33FECD33CDCC93
:10062E0033CCC58233C5829BED9AEC99E582984016
:10063E000CF582EE9BFEED9AFDEC99FC0FD5F0D6F3
:10064E00E4CEFBE4CDFAE4CCF9A88222B800C1B91D
:10065E000059BA002DEC8BF084CFCECDFCE5F0CB5B
:10066E00F97818EF2FFFEE33FEED33FDEC33FCEB94
:10067E0033FB10D703994004EB99FB0FD8E5E4F94F
:10068E00FA227818EF2FFFEE33FEED33FDEC33FC3C
:10069E00C933C910D7059BE99A4007EC9BFCE99A30
:1006AE00F90FD8E0E4C9FAE4CCFB2275F010EF2F75
:1006BE00FFEE33FEED33FDCC33CCC833C810D70775
:1006CE009BEC9AE899400AED9BFDEC9AFCE899F8B0
:0E06DE000FD5F0DAE4CDFBE4CCFAE4C8F92243
:0E06EC00C3E49FFFE49EFEE49DFDE49CFC221F
:1006FA00EB9FF5F0EA9E42F0E99D42F0E89C45F056
:01070A0022CC
:10070B00FAE6FB0808E6F925F0F618E6CA3AF622EF
:10071B00D083D082F8E4937012740193700DA3A36D
:10072B0093F8740193F5828883E473740293686081
:06073B00EFA3A3A380DF81
:1016C100EFB40A07740D1216CC740A309811A89958
:1016D100B8130CC2983098FDA899C298B811F63089
:0716E10099FDC299F5992261
:1017A700E4FFFE120555600C0FEF70010E09E9709A
:0517B700F20A80EF22A0
:00000001FF
